{
  "contractName": "ConfluxConsortiumNFT",
  "abi": [
    {
      "inputs": [],
      "stateMutability": "nonpayable",
      "type": "constructor"
    },
    {
      "anonymous": false,
      "inputs": [
        {
          "indexed": true,
          "internalType": "address",
          "name": "owner",
          "type": "address"
        },
        {
          "indexed": true,
          "internalType": "address",
          "name": "approved",
          "type": "address"
        },
        {
          "indexed": true,
          "internalType": "uint256",
          "name": "tokenId",
          "type": "uint256"
        }
      ],
      "name": "Approval",
      "type": "event"
    },
    {
      "anonymous": false,
      "inputs": [
        {
          "indexed": true,
          "internalType": "address",
          "name": "owner",
          "type": "address"
        },
        {
          "indexed": true,
          "internalType": "address",
          "name": "operator",
          "type": "address"
        },
        {
          "indexed": false,
          "internalType": "bool",
          "name": "approved",
          "type": "bool"
        }
      ],
      "name": "ApprovalForAll",
      "type": "event"
    },
    {
      "anonymous": false,
      "inputs": [
        {
          "indexed": true,
          "internalType": "bytes32",
          "name": "role",
          "type": "bytes32"
        },
        {
          "indexed": true,
          "internalType": "bytes32",
          "name": "previousAdminRole",
          "type": "bytes32"
        },
        {
          "indexed": true,
          "internalType": "bytes32",
          "name": "newAdminRole",
          "type": "bytes32"
        }
      ],
      "name": "RoleAdminChanged",
      "type": "event"
    },
    {
      "anonymous": false,
      "inputs": [
        {
          "indexed": true,
          "internalType": "bytes32",
          "name": "role",
          "type": "bytes32"
        },
        {
          "indexed": true,
          "internalType": "address",
          "name": "account",
          "type": "address"
        },
        {
          "indexed": true,
          "internalType": "address",
          "name": "sender",
          "type": "address"
        }
      ],
      "name": "RoleGranted",
      "type": "event"
    },
    {
      "anonymous": false,
      "inputs": [
        {
          "indexed": true,
          "internalType": "bytes32",
          "name": "role",
          "type": "bytes32"
        },
        {
          "indexed": true,
          "internalType": "address",
          "name": "account",
          "type": "address"
        },
        {
          "indexed": true,
          "internalType": "address",
          "name": "sender",
          "type": "address"
        }
      ],
      "name": "RoleRevoked",
      "type": "event"
    },
    {
      "anonymous": false,
      "inputs": [
        {
          "indexed": true,
          "internalType": "address",
          "name": "from",
          "type": "address"
        },
        {
          "indexed": true,
          "internalType": "address",
          "name": "to",
          "type": "address"
        },
        {
          "indexed": true,
          "internalType": "uint256",
          "name": "tokenId",
          "type": "uint256"
        }
      ],
      "name": "Transfer",
      "type": "event"
    },
    {
      "inputs": [],
      "name": "DEFAULT_ADMIN_ROLE",
      "outputs": [
        {
          "internalType": "bytes32",
          "name": "",
          "type": "bytes32"
        }
      ],
      "stateMutability": "view",
      "type": "function"
    },
    {
      "inputs": [
        {
          "internalType": "address",
          "name": "to",
          "type": "address"
        },
        {
          "internalType": "uint256",
          "name": "tokenId",
          "type": "uint256"
        }
      ],
      "name": "approve",
      "outputs": [],
      "stateMutability": "nonpayable",
      "type": "function"
    },
    {
      "inputs": [
        {
          "internalType": "address",
          "name": "owner",
          "type": "address"
        }
      ],
      "name": "balanceOf",
      "outputs": [
        {
          "internalType": "uint256",
          "name": "",
          "type": "uint256"
        }
      ],
      "stateMutability": "view",
      "type": "function"
    },
    {
      "inputs": [
        {
          "internalType": "uint256",
          "name": "tokenId",
          "type": "uint256"
        }
      ],
      "name": "getApproved",
      "outputs": [
        {
          "internalType": "address",
          "name": "",
          "type": "address"
        }
      ],
      "stateMutability": "view",
      "type": "function"
    },
    {
      "inputs": [
        {
          "internalType": "bytes32",
          "name": "role",
          "type": "bytes32"
        }
      ],
      "name": "getRoleAdmin",
      "outputs": [
        {
          "internalType": "bytes32",
          "name": "",
          "type": "bytes32"
        }
      ],
      "stateMutability": "view",
      "type": "function"
    },
    {
      "inputs": [
        {
          "internalType": "bytes32",
          "name": "role",
          "type": "bytes32"
        },
        {
          "internalType": "uint256",
          "name": "index",
          "type": "uint256"
        }
      ],
      "name": "getRoleMember",
      "outputs": [
        {
          "internalType": "address",
          "name": "",
          "type": "address"
        }
      ],
      "stateMutability": "view",
      "type": "function"
    },
    {
      "inputs": [
        {
          "internalType": "bytes32",
          "name": "role",
          "type": "bytes32"
        }
      ],
      "name": "getRoleMemberCount",
      "outputs": [
        {
          "internalType": "uint256",
          "name": "",
          "type": "uint256"
        }
      ],
      "stateMutability": "view",
      "type": "function"
    },
    {
      "inputs": [
        {
          "internalType": "bytes32",
          "name": "role",
          "type": "bytes32"
        },
        {
          "internalType": "address",
          "name": "account",
          "type": "address"
        }
      ],
      "name": "grantRole",
      "outputs": [],
      "stateMutability": "nonpayable",
      "type": "function"
    },
    {
      "inputs": [
        {
          "internalType": "bytes32",
          "name": "role",
          "type": "bytes32"
        },
        {
          "internalType": "address",
          "name": "account",
          "type": "address"
        }
      ],
      "name": "hasRole",
      "outputs": [
        {
          "internalType": "bool",
          "name": "",
          "type": "bool"
        }
      ],
      "stateMutability": "view",
      "type": "function"
    },
    {
      "inputs": [
        {
          "internalType": "address",
          "name": "owner",
          "type": "address"
        },
        {
          "internalType": "address",
          "name": "operator",
          "type": "address"
        }
      ],
      "name": "isApprovedForAll",
      "outputs": [
        {
          "internalType": "bool",
          "name": "",
          "type": "bool"
        }
      ],
      "stateMutability": "view",
      "type": "function"
    },
    {
      "inputs": [],
      "name": "name",
      "outputs": [
        {
          "internalType": "string",
          "name": "",
          "type": "string"
        }
      ],
      "stateMutability": "view",
      "type": "function"
    },
    {
      "inputs": [
        {
          "internalType": "uint256",
          "name": "tokenId",
          "type": "uint256"
        }
      ],
      "name": "ownerOf",
      "outputs": [
        {
          "internalType": "address",
          "name": "",
          "type": "address"
        }
      ],
      "stateMutability": "view",
      "type": "function"
    },
    {
      "inputs": [
        {
          "internalType": "bytes32",
          "name": "role",
          "type": "bytes32"
        },
        {
          "internalType": "address",
          "name": "account",
          "type": "address"
        }
      ],
      "name": "renounceRole",
      "outputs": [],
      "stateMutability": "nonpayable",
      "type": "function"
    },
    {
      "inputs": [
        {
          "internalType": "bytes32",
          "name": "role",
          "type": "bytes32"
        },
        {
          "internalType": "address",
          "name": "account",
          "type": "address"
        }
      ],
      "name": "revokeRole",
      "outputs": [],
      "stateMutability": "nonpayable",
      "type": "function"
    },
    {
      "inputs": [
        {
          "internalType": "address",
          "name": "from",
          "type": "address"
        },
        {
          "internalType": "address",
          "name": "to",
          "type": "address"
        },
        {
          "internalType": "uint256",
          "name": "tokenId",
          "type": "uint256"
        }
      ],
      "name": "safeTransferFrom",
      "outputs": [],
      "stateMutability": "nonpayable",
      "type": "function"
    },
    {
      "inputs": [
        {
          "internalType": "address",
          "name": "from",
          "type": "address"
        },
        {
          "internalType": "address",
          "name": "to",
          "type": "address"
        },
        {
          "internalType": "uint256",
          "name": "tokenId",
          "type": "uint256"
        },
        {
          "internalType": "bytes",
          "name": "_data",
          "type": "bytes"
        }
      ],
      "name": "safeTransferFrom",
      "outputs": [],
      "stateMutability": "nonpayable",
      "type": "function"
    },
    {
      "inputs": [
        {
          "internalType": "address",
          "name": "operator",
          "type": "address"
        },
        {
          "internalType": "bool",
          "name": "approved",
          "type": "bool"
        }
      ],
      "name": "setApprovalForAll",
      "outputs": [],
      "stateMutability": "nonpayable",
      "type": "function"
    },
    {
      "inputs": [],
      "name": "symbol",
      "outputs": [
        {
          "internalType": "string",
          "name": "",
          "type": "string"
        }
      ],
      "stateMutability": "view",
      "type": "function"
    },
    {
      "inputs": [
        {
          "internalType": "uint256",
          "name": "index",
          "type": "uint256"
        }
      ],
      "name": "tokenByIndex",
      "outputs": [
        {
          "internalType": "uint256",
          "name": "",
          "type": "uint256"
        }
      ],
      "stateMutability": "view",
      "type": "function"
    },
    {
      "inputs": [
        {
          "internalType": "address",
          "name": "owner",
          "type": "address"
        },
        {
          "internalType": "uint256",
          "name": "index",
          "type": "uint256"
        }
      ],
      "name": "tokenOfOwnerByIndex",
      "outputs": [
        {
          "internalType": "uint256",
          "name": "",
          "type": "uint256"
        }
      ],
      "stateMutability": "view",
      "type": "function"
    },
    {
      "inputs": [
        {
          "internalType": "uint256",
          "name": "offset",
          "type": "uint256"
        },
        {
          "internalType": "uint256",
          "name": "limit",
          "type": "uint256"
        }
      ],
      "name": "tokens",
      "outputs": [
        {
          "internalType": "uint256",
          "name": "total",
          "type": "uint256"
        },
        {
          "internalType": "uint256[]",
          "name": "tokenIds",
          "type": "uint256[]"
        }
      ],
      "stateMutability": "view",
      "type": "function"
    },
    {
      "inputs": [
        {
          "internalType": "address",
          "name": "owner",
          "type": "address"
        },
        {
          "internalType": "uint256",
          "name": "offset",
          "type": "uint256"
        },
        {
          "internalType": "uint256",
          "name": "limit",
          "type": "uint256"
        }
      ],
      "name": "tokensOf",
      "outputs": [
        {
          "internalType": "uint256",
          "name": "total",
          "type": "uint256"
        },
        {
          "internalType": "uint256[]",
          "name": "tokenIds",
          "type": "uint256[]"
        }
      ],
      "stateMutability": "view",
      "type": "function"
    },
    {
      "inputs": [],
      "name": "totalSupply",
      "outputs": [
        {
          "internalType": "uint256",
          "name": "",
          "type": "uint256"
        }
      ],
      "stateMutability": "view",
      "type": "function"
    },
    {
      "inputs": [
        {
          "internalType": "address",
          "name": "from",
          "type": "address"
        },
        {
          "internalType": "address",
          "name": "to",
          "type": "address"
        },
        {
          "internalType": "uint256",
          "name": "tokenId",
          "type": "uint256"
        }
      ],
      "name": "transferFrom",
      "outputs": [],
      "stateMutability": "nonpayable",
      "type": "function"
    },
    {
      "inputs": [
        {
          "internalType": "string",
          "name": "baseUri",
          "type": "string"
        }
      ],
      "name": "setBaseURI",
      "outputs": [],
      "stateMutability": "nonpayable",
      "type": "function"
    },
    {
      "inputs": [
        {
          "internalType": "address[]",
          "name": "owners",
          "type": "address[]"
        },
        {
          "internalType": "uint256[]",
          "name": "tokenIds",
          "type": "uint256[]"
        }
      ],
      "name": "mintBatch",
      "outputs": [],
      "stateMutability": "nonpayable",
      "type": "function"
    },
    {
      "inputs": [
        {
          "internalType": "uint256",
          "name": "tokenId",
          "type": "uint256"
        }
      ],
      "name": "tokenURI",
      "outputs": [
        {
          "internalType": "string",
          "name": "",
          "type": "string"
        }
      ],
      "stateMutability": "view",
      "type": "function"
    },
    {
      "inputs": [
        {
          "internalType": "bytes4",
          "name": "interfaceId",
          "type": "bytes4"
        }
      ],
      "name": "supportsInterface",
      "outputs": [
        {
          "internalType": "bool",
          "name": "",
          "type": "bool"
        }
      ],
      "stateMutability": "view",
      "type": "function"
    }
  ],
  "bytecode": "0x60806040523480156200001157600080fd5b506040518060400160405280601181526020017f434658436f6e736f727469756d204e46540000000000000000000000000000008152506040518060400160405280600981526020017f43465843532d4e46540000000000000000000000000000000000000000000000815250816002908051906020019062000096929190620003cc565b508060039080519060200190620000af929190620003cc565b5050506040518060400160405280600681526020017f4e6f745365740000000000000000000000000000000000000000000000000000815250600d9080519060200190620000ff929190620003cc565b506000600e60006101000a81548160ff021916908315150217905550620001306000801b336200013660201b60201c565b620004e1565b6200014d82826200017e60201b620015431760201c565b6200017981600160008581526020019081526020016000206200019460201b620015511790919060201c565b505050565b620001908282620001cc60201b60201c565b5050565b6000620001c4836000018373ffffffffffffffffffffffffffffffffffffffff1660001b620002bd60201b60201c565b905092915050565b620001de82826200033760201b60201c565b620002b957600160008084815260200190815260200160002060000160008373ffffffffffffffffffffffffffffffffffffffff1673ffffffffffffffffffffffffffffffffffffffff16815260200190815260200160002060006101000a81548160ff0219169083151502179055506200025e620003a160201b60201c565b73ffffffffffffffffffffffffffffffffffffffff168173ffffffffffffffffffffffffffffffffffffffff16837f2f8788117e7eff1d82e926ec794901d17c78024a50270940304540a733656f0d60405160405180910390a45b5050565b6000620002d18383620003a960201b60201c565b6200032c57826000018290806001815401808255809150506001900390600052602060002001600090919091909150558260000180549050836001016000848152602001908152602001600020819055506001905062000331565b600090505b92915050565b600080600084815260200190815260200160002060000160008373ffffffffffffffffffffffffffffffffffffffff1673ffffffffffffffffffffffffffffffffffffffff16815260200190815260200160002060009054906101000a900460ff16905092915050565b600033905090565b600080836001016000848152602001908152602001600020541415905092915050565b828054620003da906200047c565b90600052602060002090601f016020900481019282620003fe57600085556200044a565b82601f106200041957805160ff19168380011785556200044a565b828001600101855582156200044a579182015b82811115620004495782518255916020019190600101906200042c565b5b5090506200045991906200045d565b5090565b5b80821115620004785760008160009055506001016200045e565b5090565b600060028204905060018216806200049557607f821691505b60208210811415620004ac57620004ab620004b2565b5b50919050565b7f4e487b7100000000000000000000000000000000000000000000000000000000600052602260045260246000fd5b614bb280620004f16000396000f3fe608060405234801561001057600080fd5b50600436106101c45760003560e01c80636352211e116100f9578063a217fddf11610097578063c87b56dd11610071578063c87b56dd1461054f578063ca15c8731461057f578063d547741f146105af578063e985e9c5146105cb576101c4565b8063a217fddf146104f9578063a22cb46514610517578063b88d4fde14610533576101c4565b80638b4864d6116100d35780638b4864d61461044a5780639010d07c1461047b57806391d14854146104ab57806395d89b41146104db576101c4565b80636352211e146103ce57806370a08231146103fe5780637c88e3d91461042e576101c4565b8063248a9ca31161016657806336568abe1161014057806336568abe1461034a57806342842e0e146103665780634f6ccce71461038257806355f804b3146103b2576101c4565b8063248a9ca3146102ce5780632f2ff15d146102fe5780632f745c591461031a576101c4565b8063095ea7b3116101a2578063095ea7b31461024757806318160ddd1461026357806323185dc91461028157806323b872dd146102b2576101c4565b806301ffc9a7146101c957806306fdde03146101f9578063081812fc14610217575b600080fd5b6101e360048036038101906101de9190613800565b6105fb565b6040516101f09190614341565b60405180910390f35b61020161060d565b60405161020e9190614377565b60405180910390f35b610231600480360381019061022c9190613893565b61069f565b60405161023e91906142da565b60405180910390f35b610261600480360381019061025c919061365f565b610724565b005b61026b61083c565b6040516102789190614639565b60405180910390f35b61029b6004803603810190610296919061369b565b610849565b6040516102a9929190614654565b60405180910390f35b6102cc60048036038101906102c79190613559565b610a0a565b005b6102e860048036038101906102e3919061375f565b610a6a565b6040516102f5919061435c565b60405180910390f35b61031860048036038101906103139190613788565b610a89565b005b610334600480360381019061032f919061365f565b610abd565b6040516103419190614639565b60405180910390f35b610364600480360381019061035f9190613788565b610b62565b005b610380600480360381019061037b9190613559565b610b96565b005b61039c60048036038101906103979190613893565b610bb6565b6040516103a99190614639565b60405180910390f35b6103cc60048036038101906103c79190613852565b610c4d565b005b6103e860048036038101906103e39190613893565b610c7d565b6040516103f591906142da565b60405180910390f35b610418600480360381019061041391906134f4565b610d2f565b6040516104259190614639565b60405180910390f35b610448600480360381019061044391906136ea565b610de7565b005b610464600480360381019061045f91906138bc565b610f72565b604051610472929190614654565b60405180910390f35b610495600480360381019061049091906137c4565b611130565b6040516104a291906142da565b60405180910390f35b6104c560048036038101906104c09190613788565b61115f565b6040516104d29190614341565b60405180910390f35b6104e36111c9565b6040516104f09190614377565b60405180910390f35b61050161125b565b60405161050e919061435c565b60405180910390f35b610531600480360381019061052c9190613623565b611262565b005b61054d600480360381019061054891906135a8565b6113e3565b005b61056960048036038101906105649190613893565b611445565b6040516105769190614377565b60405180910390f35b6105996004803603810190610594919061375f565b611457565b6040516105a69190614639565b60405180910390f35b6105c960048036038101906105c49190613788565b61147b565b005b6105e560048036038101906105e0919061351d565b6114af565b6040516105f29190614341565b60405180910390f35b600061060682611581565b9050919050565b60606002805461061c90614990565b80601f016020809104026020016040519081016040528092919081815260200182805461064890614990565b80156106955780601f1061066a57610100808354040283529160200191610695565b820191906000526020600020905b81548152906001019060200180831161067857829003601f168201915b5050505050905090565b60006106aa826115fb565b6106e9576040517f08c379a00000000000000000000000000000000000000000000000000000000081526004016106e090614539565b60405180910390fd5b6006600083815260200190815260200160002060009054906101000a900473ffffffffffffffffffffffffffffffffffffffff169050919050565b600061072f82610c7d565b90508073ffffffffffffffffffffffffffffffffffffffff168373ffffffffffffffffffffffffffffffffffffffff1614156107a0576040517f08c379a000000000000000000000000000000000000000000000000000000000815260040161079790614599565b60405180910390fd5b8073ffffffffffffffffffffffffffffffffffffffff166107bf611667565b73ffffffffffffffffffffffffffffffffffffffff1614806107ee57506107ed816107e8611667565b6114af565b5b61082d576040517f08c379a000000000000000000000000000000000000000000000000000000000815260040161082490614499565b60405180910390fd5b610837838361166f565b505050565b6000600b80549050905090565b6000606061085685610d2f565b915060008214806108675750818410155b156108e65781600067ffffffffffffffff8111156108ae577f4e487b7100000000000000000000000000000000000000000000000000000000600052604160045260246000fd5b6040519080825280602002602001820160405280156108dc5781602001602082028036833780820191505090505b5091509150610a02565b600061090684866108f79190614791565b8461172890919063ffffffff16565b905084816109149190614872565b67ffffffffffffffff811115610953577f4e487b7100000000000000000000000000000000000000000000000000000000600052604160045260246000fd5b6040519080825280602002602001820160405280156109815781602001602082028036833780820191505090505b50915060008590505b818110156109ff5761099c8782610abd565b8387836109a99190614872565b815181106109e0577f4e487b7100000000000000000000000000000000000000000000000000000000600052603260045260246000fd5b60200260200101818152505080806109f7906149c2565b91505061098a565b50505b935093915050565b610a1b610a15611667565b82611741565b610a5a576040517f08c379a0000000000000000000000000000000000000000000000000000000008152600401610a51906145d9565b60405180910390fd5b610a6583838361181f565b505050565b6000806000838152602001908152602001600020600101549050919050565b610a938282611a7b565b610ab8816001600085815260200190815260200160002061155190919063ffffffff16565b505050565b6000610ac883610d2f565b8210610b09576040517f08c379a0000000000000000000000000000000000000000000000000000000008152600401610b00906143d9565b60405180910390fd5b600960008473ffffffffffffffffffffffffffffffffffffffff1673ffffffffffffffffffffffffffffffffffffffff168152602001908152602001600020600083815260200190815260200160002054905092915050565b610b6c8282611aa4565b610b918160016000858152602001908152602001600020611b2790919063ffffffff16565b505050565b610bb1838383604051806020016040528060008152506113e3565b505050565b6000610bc061083c565b8210610c01576040517f08c379a0000000000000000000000000000000000000000000000000000000008152600401610bf8906145f9565b60405180910390fd5b600b8281548110610c3b577f4e487b7100000000000000000000000000000000000000000000000000000000600052603260045260246000fd5b90600052602060002001549050919050565b6000801b610c6281610c5d611667565b611b57565b81600d9080519060200190610c7892919061326f565b505050565b6000806004600084815260200190815260200160002060009054906101000a900473ffffffffffffffffffffffffffffffffffffffff169050600073ffffffffffffffffffffffffffffffffffffffff168173ffffffffffffffffffffffffffffffffffffffff161415610d26576040517f08c379a0000000000000000000000000000000000000000000000000000000008152600401610d1d906144d9565b60405180910390fd5b80915050919050565b60008073ffffffffffffffffffffffffffffffffffffffff168273ffffffffffffffffffffffffffffffffffffffff161415610da0576040517f08c379a0000000000000000000000000000000000000000000000000000000008152600401610d97906144b9565b60405180910390fd5b600560008373ffffffffffffffffffffffffffffffffffffffff1673ffffffffffffffffffffffffffffffffffffffff168152602001908152602001600020549050919050565b6000801b610dfc81610df7611667565b611b57565b60001515600e60009054906101000a900460ff16151514610e52576040517f08c379a0000000000000000000000000000000000000000000000000000000008152600401610e49906145b9565b60405180910390fd5b828290508585905014610e9a576040517f08c379a0000000000000000000000000000000000000000000000000000000008152600401610e9190614399565b60405180910390fd5b60005b85859050811015610f4f57610f3e868683818110610ee4577f4e487b7100000000000000000000000000000000000000000000000000000000600052603260045260246000fd5b9050602002016020810190610ef991906134f4565b858584818110610f32577f4e487b7100000000000000000000000000000000000000000000000000000000600052603260045260246000fd5b90506020020135611bf4565b80610f48906149c2565b9050610e9d565b506001600e60006101000a81548160ff0219169083151502179055505050505050565b60006060610f7e61083c565b91506000821480610f8f5750818410155b1561100e5781600067ffffffffffffffff811115610fd6577f4e487b7100000000000000000000000000000000000000000000000000000000600052604160045260246000fd5b6040519080825280602002602001820160405280156110045781602001602082028036833780820191505090505b5091509150611129565b600061102e848661101f9190614791565b8461172890919063ffffffff16565b9050848161103c9190614872565b67ffffffffffffffff81111561107b577f4e487b7100000000000000000000000000000000000000000000000000000000600052604160045260246000fd5b6040519080825280602002602001820160405280156110a95781602001602082028036833780820191505090505b50915060008590505b81811015611126576110c381610bb6565b8387836110d09190614872565b81518110611107577f4e487b7100000000000000000000000000000000000000000000000000000000600052603260045260246000fd5b602002602001018181525050808061111e906149c2565b9150506110b2565b50505b9250929050565b60006111578260016000868152602001908152602001600020611dc290919063ffffffff16565b905092915050565b600080600084815260200190815260200160002060000160008373ffffffffffffffffffffffffffffffffffffffff1673ffffffffffffffffffffffffffffffffffffffff16815260200190815260200160002060009054906101000a900460ff16905092915050565b6060600380546111d890614990565b80601f016020809104026020016040519081016040528092919081815260200182805461120490614990565b80156112515780601f1061122657610100808354040283529160200191611251565b820191906000526020600020905b81548152906001019060200180831161123457829003601f168201915b5050505050905090565b6000801b81565b61126a611667565b73ffffffffffffffffffffffffffffffffffffffff168273ffffffffffffffffffffffffffffffffffffffff1614156112d8576040517f08c379a00000000000000000000000000000000000000000000000000000000081526004016112cf90614459565b60405180910390fd5b80600760006112e5611667565b73ffffffffffffffffffffffffffffffffffffffff1673ffffffffffffffffffffffffffffffffffffffff16815260200190815260200160002060008473ffffffffffffffffffffffffffffffffffffffff1673ffffffffffffffffffffffffffffffffffffffff16815260200190815260200160002060006101000a81548160ff0219169083151502179055508173ffffffffffffffffffffffffffffffffffffffff16611392611667565b73ffffffffffffffffffffffffffffffffffffffff167f17307eab39ab6107e8899845ad3d59bd9653f200f220920489ca2b5937696c31836040516113d79190614341565b60405180910390a35050565b6113f46113ee611667565b83611741565b611433576040517f08c379a000000000000000000000000000000000000000000000000000000000815260040161142a906145d9565b60405180910390fd5b61143f84848484611ddc565b50505050565b606061145082611e38565b9050919050565b600061147460016000848152602001908152602001600020611f8a565b9050919050565b6114858282611f9f565b6114aa8160016000858152602001908152602001600020611b2790919063ffffffff16565b505050565b6000600760008473ffffffffffffffffffffffffffffffffffffffff1673ffffffffffffffffffffffffffffffffffffffff16815260200190815260200160002060008373ffffffffffffffffffffffffffffffffffffffff1673ffffffffffffffffffffffffffffffffffffffff16815260200190815260200160002060009054906101000a900460ff16905092915050565b61154d8282611fc8565b5050565b6000611579836000018373ffffffffffffffffffffffffffffffffffffffff1660001b6120a8565b905092915050565b60007f780e9d63000000000000000000000000000000000000000000000000000000007bffffffffffffffffffffffffffffffffffffffffffffffffffffffff1916827bffffffffffffffffffffffffffffffffffffffffffffffffffffffff191614806115f457506115f382612118565b5b9050919050565b60008073ffffffffffffffffffffffffffffffffffffffff166004600084815260200190815260200160002060009054906101000a900473ffffffffffffffffffffffffffffffffffffffff1673ffffffffffffffffffffffffffffffffffffffff1614159050919050565b600033905090565b816006600083815260200190815260200160002060006101000a81548173ffffffffffffffffffffffffffffffffffffffff021916908373ffffffffffffffffffffffffffffffffffffffff160217905550808273ffffffffffffffffffffffffffffffffffffffff166116e283610c7d565b73ffffffffffffffffffffffffffffffffffffffff167f8c5be1e5ebec7d5bd14f71427d1e84f3dd0314c0f7b2291e5b200ac8c7c3b92560405160405180910390a45050565b60008183106117375781611739565b825b905092915050565b600061174c826115fb565b61178b576040517f08c379a000000000000000000000000000000000000000000000000000000000815260040161178290614479565b60405180910390fd5b600061179683610c7d565b90508073ffffffffffffffffffffffffffffffffffffffff168473ffffffffffffffffffffffffffffffffffffffff16148061180557508373ffffffffffffffffffffffffffffffffffffffff166117ed8461069f565b73ffffffffffffffffffffffffffffffffffffffff16145b80611816575061181581856114af565b5b91505092915050565b8273ffffffffffffffffffffffffffffffffffffffff1661183f82610c7d565b73ffffffffffffffffffffffffffffffffffffffff1614611895576040517f08c379a000000000000000000000000000000000000000000000000000000000815260040161188c90614559565b60405180910390fd5b600073ffffffffffffffffffffffffffffffffffffffff168273ffffffffffffffffffffffffffffffffffffffff161415611905576040517f08c379a00000000000000000000000000000000000000000000000000000000081526004016118fc90614439565b60405180910390fd5b6119108383836121fa565b61191b60008261166f565b6001600560008573ffffffffffffffffffffffffffffffffffffffff1673ffffffffffffffffffffffffffffffffffffffff168152602001908152602001600020600082825461196b9190614872565b925050819055506001600560008473ffffffffffffffffffffffffffffffffffffffff1673ffffffffffffffffffffffffffffffffffffffff16815260200190815260200160002060008282546119c29190614791565b92505081905550816004600083815260200190815260200160002060006101000a81548173ffffffffffffffffffffffffffffffffffffffff021916908373ffffffffffffffffffffffffffffffffffffffff160217905550808273ffffffffffffffffffffffffffffffffffffffff168473ffffffffffffffffffffffffffffffffffffffff167fddf252ad1be2c89b69c2b068fc378daa952ba7f163c4a11628f55a4df523b3ef60405160405180910390a4505050565b611a8482610a6a565b611a9581611a90611667565b611b57565b611a9f8383611fc8565b505050565b611aac611667565b73ffffffffffffffffffffffffffffffffffffffff168173ffffffffffffffffffffffffffffffffffffffff1614611b19576040517f08c379a0000000000000000000000000000000000000000000000000000000008152600401611b1090614619565b60405180910390fd5b611b23828261220a565b5050565b6000611b4f836000018373ffffffffffffffffffffffffffffffffffffffff1660001b6122eb565b905092915050565b611b61828261115f565b611bf057611b868173ffffffffffffffffffffffffffffffffffffffff166014612471565b611b948360001c6020612471565b604051602001611ba59291906142a0565b6040516020818303038152906040526040517f08c379a0000000000000000000000000000000000000000000000000000000008152600401611be79190614377565b60405180910390fd5b5050565b600073ffffffffffffffffffffffffffffffffffffffff168273ffffffffffffffffffffffffffffffffffffffff161415611c64576040517f08c379a0000000000000000000000000000000000000000000000000000000008152600401611c5b906144f9565b60405180910390fd5b611c6d816115fb565b15611cad576040517f08c379a0000000000000000000000000000000000000000000000000000000008152600401611ca490614419565b60405180910390fd5b611cb9600083836121fa565b6001600560008473ffffffffffffffffffffffffffffffffffffffff1673ffffffffffffffffffffffffffffffffffffffff1681526020019081526020016000206000828254611d099190614791565b92505081905550816004600083815260200190815260200160002060006101000a81548173ffffffffffffffffffffffffffffffffffffffff021916908373ffffffffffffffffffffffffffffffffffffffff160217905550808273ffffffffffffffffffffffffffffffffffffffff16600073ffffffffffffffffffffffffffffffffffffffff167fddf252ad1be2c89b69c2b068fc378daa952ba7f163c4a11628f55a4df523b3ef60405160405180910390a45050565b6000611dd1836000018361276b565b60001c905092915050565b611de784848461181f565b611df3848484846127bc565b611e32576040517f08c379a0000000000000000000000000000000000000000000000000000000008152600401611e29906143f9565b60405180910390fd5b50505050565b6060611e43826115fb565b611e82576040517f08c379a0000000000000000000000000000000000000000000000000000000008152600401611e7990614519565b60405180910390fd5b6000600860008481526020019081526020016000208054611ea290614990565b80601f0160208091040260200160405190810160405280929190818152602001828054611ece90614990565b8015611f1b5780601f10611ef057610100808354040283529160200191611f1b565b820191906000526020600020905b815481529060010190602001808311611efe57829003601f168201915b505050505090506000611f2c612953565b9050600081511415611f42578192505050611f85565b600082511115611f77578082604051602001611f5f92919061427c565b60405160208183030381529060405292505050611f85565b611f80846129e5565b925050505b919050565b6000611f9882600001612a8c565b9050919050565b611fa882610a6a565b611fb981611fb4611667565b611b57565b611fc3838361220a565b505050565b611fd2828261115f565b6120a457600160008084815260200190815260200160002060000160008373ffffffffffffffffffffffffffffffffffffffff1673ffffffffffffffffffffffffffffffffffffffff16815260200190815260200160002060006101000a81548160ff021916908315150217905550612049611667565b73ffffffffffffffffffffffffffffffffffffffff168173ffffffffffffffffffffffffffffffffffffffff16837f2f8788117e7eff1d82e926ec794901d17c78024a50270940304540a733656f0d60405160405180910390a45b5050565b60006120b48383612a9d565b61210d578260000182908060018154018082558091505060019003906000526020600020016000909190919091505582600001805490508360010160008481526020019081526020016000208190555060019050612112565b600090505b92915050565b60007f80ac58cd000000000000000000000000000000000000000000000000000000007bffffffffffffffffffffffffffffffffffffffffffffffffffffffff1916827bffffffffffffffffffffffffffffffffffffffffffffffffffffffff191614806121e357507f5b5e139f000000000000000000000000000000000000000000000000000000007bffffffffffffffffffffffffffffffffffffffffffffffffffffffff1916827bffffffffffffffffffffffffffffffffffffffffffffffffffffffff1916145b806121f357506121f282612ac0565b5b9050919050565b612205838383612b3a565b505050565b612214828261115f565b156122e757600080600084815260200190815260200160002060000160008373ffffffffffffffffffffffffffffffffffffffff1673ffffffffffffffffffffffffffffffffffffffff16815260200190815260200160002060006101000a81548160ff02191690831515021790555061228c611667565b73ffffffffffffffffffffffffffffffffffffffff168173ffffffffffffffffffffffffffffffffffffffff16837ff6391f5c32d9c69d2a47ea670b442974b53935d1edc7fd64eb21e047a839171b60405160405180910390a45b5050565b6000808360010160008481526020019081526020016000205490506000811461246557600060018261231d9190614872565b90506000600186600001805490506123359190614872565b90508181146123f057600086600001828154811061237c577f4e487b7100000000000000000000000000000000000000000000000000000000600052603260045260246000fd5b90600052602060002001549050808760000184815481106123c6577f4e487b7100000000000000000000000000000000000000000000000000000000600052603260045260246000fd5b90600052602060002001819055508387600101600083815260200190815260200160002081905550505b8560000180548061242a577f4e487b7100000000000000000000000000000000000000000000000000000000600052603160045260246000fd5b60019003818190600052602060002001600090559055856001016000868152602001908152602001600020600090556001935050505061246b565b60009150505b92915050565b6060600060028360026124849190614818565b61248e9190614791565b67ffffffffffffffff8111156124cd577f4e487b7100000000000000000000000000000000000000000000000000000000600052604160045260246000fd5b6040519080825280601f01601f1916602001820160405280156124ff5781602001600182028036833780820191505090505b5090507f30000000000000000000000000000000000000000000000000000000000000008160008151811061255d577f4e487b7100000000000000000000000000000000000000000000000000000000600052603260045260246000fd5b60200101907effffffffffffffffffffffffffffffffffffffffffffffffffffffffffffff1916908160001a9053507f7800000000000000000000000000000000000000000000000000000000000000816001815181106125e7577f4e487b7100000000000000000000000000000000000000000000000000000000600052603260045260246000fd5b60200101907effffffffffffffffffffffffffffffffffffffffffffffffffffffffffffff1916908160001a905350600060018460026126279190614818565b6126319190614791565b90505b600181111561271d577f3031323334353637383961626364656600000000000000000000000000000000600f861660108110612699577f4e487b7100000000000000000000000000000000000000000000000000000000600052603260045260246000fd5b1a60f81b8282815181106126d6577f4e487b7100000000000000000000000000000000000000000000000000000000600052603260045260246000fd5b60200101907effffffffffffffffffffffffffffffffffffffffffffffffffffffffffffff1916908160001a905350600485901c94508061271690614966565b9050612634565b5060008414612761576040517f08c379a0000000000000000000000000000000000000000000000000000000008152600401612758906143b9565b60405180910390fd5b8091505092915050565b60008260000182815481106127a9577f4e487b7100000000000000000000000000000000000000000000000000000000600052603260045260246000fd5b9060005260206000200154905092915050565b60006127dd8473ffffffffffffffffffffffffffffffffffffffff16612c4e565b15612946578373ffffffffffffffffffffffffffffffffffffffff1663150b7a02612806611667565b8786866040518563ffffffff1660e01b815260040161282894939291906142f5565b602060405180830381600087803b15801561284257600080fd5b505af192505050801561287357506040513d601f19601f820116820180604052508101906128709190613829565b60015b6128f6573d80600081146128a3576040519150601f19603f3d011682016040523d82523d6000602084013e6128a8565b606091505b506000815114156128ee576040517f08c379a00000000000000000000000000000000000000000000000000000000081526004016128e5906143f9565b60405180910390fd5b805181602001fd5b63150b7a0260e01b7bffffffffffffffffffffffffffffffffffffffffffffffffffffffff1916817bffffffffffffffffffffffffffffffffffffffffffffffffffffffff19161491505061294b565b600190505b949350505050565b6060600d805461296290614990565b80601f016020809104026020016040519081016040528092919081815260200182805461298e90614990565b80156129db5780601f106129b0576101008083540402835291602001916129db565b820191906000526020600020905b8154815290600101906020018083116129be57829003601f168201915b5050505050905090565b60606129f0826115fb565b612a2f576040517f08c379a0000000000000000000000000000000000000000000000000000000008152600401612a2690614579565b60405180910390fd5b6000612a39612953565b90506000815111612a595760405180602001604052806000815250612a84565b80612a6384612c61565b604051602001612a7492919061427c565b6040516020818303038152906040525b915050919050565b600081600001805490509050919050565b600080836001016000848152602001908152602001600020541415905092915050565b60007f5a05180f000000000000000000000000000000000000000000000000000000007bffffffffffffffffffffffffffffffffffffffffffffffffffffffff1916827bffffffffffffffffffffffffffffffffffffffffffffffffffffffff19161480612b335750612b3282612e0e565b5b9050919050565b612b45838383612e88565b600073ffffffffffffffffffffffffffffffffffffffff168373ffffffffffffffffffffffffffffffffffffffff161415612b8857612b8381612e8d565b612bc7565b8173ffffffffffffffffffffffffffffffffffffffff168373ffffffffffffffffffffffffffffffffffffffff1614612bc657612bc58382612ed6565b5b5b600073ffffffffffffffffffffffffffffffffffffffff168273ffffffffffffffffffffffffffffffffffffffff161415612c0a57612c0581613043565b612c49565b8273ffffffffffffffffffffffffffffffffffffffff168273ffffffffffffffffffffffffffffffffffffffff1614612c4857612c478282613186565b5b5b505050565b600080823b905060008111915050919050565b60606000821415612ca9576040518060400160405280600181526020017f30000000000000000000000000000000000000000000000000000000000000008152509050612e09565b600082905060005b60008214612cdb578080612cc4906149c2565b915050600a82612cd491906147e7565b9150612cb1565b60008167ffffffffffffffff811115612d1d577f4e487b7100000000000000000000000000000000000000000000000000000000600052604160045260246000fd5b6040519080825280601f01601f191660200182016040528015612d4f5781602001600182028036833780820191505090505b5090505b60008514612e0257600182612d689190614872565b9150600a85612d779190614a0b565b6030612d839190614791565b60f81b818381518110612dbf577f4e487b7100000000000000000000000000000000000000000000000000000000600052603260045260246000fd5b60200101907effffffffffffffffffffffffffffffffffffffffffffffffffffffffffffff1916908160001a905350600a85612dfb91906147e7565b9450612d53565b8093505050505b919050565b60007f7965db0b000000000000000000000000000000000000000000000000000000007bffffffffffffffffffffffffffffffffffffffffffffffffffffffff1916827bffffffffffffffffffffffffffffffffffffffffffffffffffffffff19161480612e815750612e8082613205565b5b9050919050565b505050565b600b80549050600c600083815260200190815260200160002081905550600b81908060018154018082558091505060019003906000526020600020016000909190919091505550565b60006001612ee384610d2f565b612eed9190614872565b90506000600a6000848152602001908152602001600020549050818114612fd2576000600960008673ffffffffffffffffffffffffffffffffffffffff1673ffffffffffffffffffffffffffffffffffffffff168152602001908152602001600020600084815260200190815260200160002054905080600960008773ffffffffffffffffffffffffffffffffffffffff1673ffffffffffffffffffffffffffffffffffffffff16815260200190815260200160002060008481526020019081526020016000208190555081600a600083815260200190815260200160002081905550505b600a600084815260200190815260200160002060009055600960008573ffffffffffffffffffffffffffffffffffffffff1673ffffffffffffffffffffffffffffffffffffffff16815260200190815260200160002060008381526020019081526020016000206000905550505050565b60006001600b805490506130579190614872565b90506000600c60008481526020019081526020016000205490506000600b83815481106130ad577f4e487b7100000000000000000000000000000000000000000000000000000000600052603260045260246000fd5b9060005260206000200154905080600b83815481106130f5577f4e487b7100000000000000000000000000000000000000000000000000000000600052603260045260246000fd5b906000526020600020018190555081600c600083815260200190815260200160002081905550600c600085815260200190815260200160002060009055600b80548061316a577f4e487b7100000000000000000000000000000000000000000000000000000000600052603160045260246000fd5b6001900381819060005260206000200160009055905550505050565b600061319183610d2f565b905081600960008573ffffffffffffffffffffffffffffffffffffffff1673ffffffffffffffffffffffffffffffffffffffff16815260200190815260200160002060008381526020019081526020016000208190555080600a600084815260200190815260200160002081905550505050565b60007f01ffc9a7000000000000000000000000000000000000000000000000000000007bffffffffffffffffffffffffffffffffffffffffffffffffffffffff1916827bffffffffffffffffffffffffffffffffffffffffffffffffffffffff1916149050919050565b82805461327b90614990565b90600052602060002090601f01602090048101928261329d57600085556132e4565b82601f106132b657805160ff19168380011785556132e4565b828001600101855582156132e4579182015b828111156132e35782518255916020019190600101906132c8565b5b5090506132f191906132f5565b5090565b5b8082111561330e5760008160009055506001016132f6565b5090565b6000613325613320846146b5565b614684565b90508281526020810184848401111561333d57600080fd5b613348848285614924565b509392505050565b600061336361335e846146e5565b614684565b90508281526020810184848401111561337b57600080fd5b613386848285614924565b509392505050565b60008135905061339d81614b09565b92915050565b60008083601f8401126133b557600080fd5b8235905067ffffffffffffffff8111156133ce57600080fd5b6020830191508360208202830111156133e657600080fd5b9250929050565b60008083601f8401126133ff57600080fd5b8235905067ffffffffffffffff81111561341857600080fd5b60208301915083602082028301111561343057600080fd5b9250929050565b60008135905061344681614b20565b92915050565b60008135905061345b81614b37565b92915050565b60008135905061347081614b4e565b92915050565b60008151905061348581614b4e565b92915050565b600082601f83011261349c57600080fd5b81356134ac848260208601613312565b91505092915050565b600082601f8301126134c657600080fd5b81356134d6848260208601613350565b91505092915050565b6000813590506134ee81614b65565b92915050565b60006020828403121561350657600080fd5b60006135148482850161338e565b91505092915050565b6000806040838503121561353057600080fd5b600061353e8582860161338e565b925050602061354f8582860161338e565b9150509250929050565b60008060006060848603121561356e57600080fd5b600061357c8682870161338e565b935050602061358d8682870161338e565b925050604061359e868287016134df565b9150509250925092565b600080600080608085870312156135be57600080fd5b60006135cc8782880161338e565b94505060206135dd8782880161338e565b93505060406135ee878288016134df565b925050606085013567ffffffffffffffff81111561360b57600080fd5b6136178782880161348b565b91505092959194509250565b6000806040838503121561363657600080fd5b60006136448582860161338e565b925050602061365585828601613437565b9150509250929050565b6000806040838503121561367257600080fd5b60006136808582860161338e565b9250506020613691858286016134df565b9150509250929050565b6000806000606084860312156136b057600080fd5b60006136be8682870161338e565b93505060206136cf868287016134df565b92505060406136e0868287016134df565b9150509250925092565b6000806000806040858703121561370057600080fd5b600085013567ffffffffffffffff81111561371a57600080fd5b613726878288016133a3565b9450945050602085013567ffffffffffffffff81111561374557600080fd5b613751878288016133ed565b925092505092959194509250565b60006020828403121561377157600080fd5b600061377f8482850161344c565b91505092915050565b6000806040838503121561379b57600080fd5b60006137a98582860161344c565b92505060206137ba8582860161338e565b9150509250929050565b600080604083850312156137d757600080fd5b60006137e58582860161344c565b92505060206137f6858286016134df565b9150509250929050565b60006020828403121561381257600080fd5b600061382084828501613461565b91505092915050565b60006020828403121561383b57600080fd5b600061384984828501613476565b91505092915050565b60006020828403121561386457600080fd5b600082013567ffffffffffffffff81111561387e57600080fd5b61388a848285016134b5565b91505092915050565b6000602082840312156138a557600080fd5b60006138b3848285016134df565b91505092915050565b600080604083850312156138cf57600080fd5b60006138dd858286016134df565b92505060206138ee858286016134df565b9150509250929050565b6000613904838361425e565b60208301905092915050565b613919816148a6565b82525050565b600061392a82614725565b6139348185614753565b935061393f83614715565b8060005b8381101561397057815161395788826138f8565b975061396283614746565b925050600181019050613943565b5085935050505092915050565b613986816148b8565b82525050565b613995816148c4565b82525050565b60006139a682614730565b6139b08185614764565b93506139c0818560208601614933565b6139c981614af8565b840191505092915050565b60006139df8261473b565b6139e98185614775565b93506139f9818560208601614933565b613a0281614af8565b840191505092915050565b6000613a188261473b565b613a228185614786565b9350613a32818560208601614933565b80840191505092915050565b6000613a4b600f83614775565b91507f6c656e677468206d69736d6174636800000000000000000000000000000000006000830152602082019050919050565b6000613a8b602083614775565b91507f537472696e67733a20686578206c656e67746820696e73756666696369656e746000830152602082019050919050565b6000613acb602b83614775565b91507f455243373231456e756d657261626c653a206f776e657220696e646578206f7560008301527f74206f6620626f756e64730000000000000000000000000000000000000000006020830152604082019050919050565b6000613b31603283614775565b91507f4552433732313a207472616e7366657220746f206e6f6e20455243373231526560008301527f63656976657220696d706c656d656e74657200000000000000000000000000006020830152604082019050919050565b6000613b97601c83614775565b91507f4552433732313a20746f6b656e20616c7265616479206d696e746564000000006000830152602082019050919050565b6000613bd7602483614775565b91507f4552433732313a207472616e7366657220746f20746865207a65726f2061646460008301527f72657373000000000000000000000000000000000000000000000000000000006020830152604082019050919050565b6000613c3d601983614775565b91507f4552433732313a20617070726f766520746f2063616c6c6572000000000000006000830152602082019050919050565b6000613c7d602c83614775565b91507f4552433732313a206f70657261746f7220717565727920666f72206e6f6e657860008301527f697374656e7420746f6b656e00000000000000000000000000000000000000006020830152604082019050919050565b6000613ce3603883614775565b91507f4552433732313a20617070726f76652063616c6c6572206973206e6f74206f7760008301527f6e6572206e6f7220617070726f76656420666f7220616c6c00000000000000006020830152604082019050919050565b6000613d49602a83614775565b91507f4552433732313a2062616c616e636520717565727920666f7220746865207a6560008301527f726f2061646472657373000000000000000000000000000000000000000000006020830152604082019050919050565b6000613daf602983614775565b91507f4552433732313a206f776e657220717565727920666f72206e6f6e657869737460008301527f656e7420746f6b656e00000000000000000000000000000000000000000000006020830152604082019050919050565b6000613e15602083614775565b91507f4552433732313a206d696e7420746f20746865207a65726f20616464726573736000830152602082019050919050565b6000613e55603183614775565b91507f45524337323155524953746f726167653a2055524920717565727920666f722060008301527f6e6f6e6578697374656e7420746f6b656e0000000000000000000000000000006020830152604082019050919050565b6000613ebb602c83614775565b91507f4552433732313a20617070726f76656420717565727920666f72206e6f6e657860008301527f697374656e7420746f6b656e00000000000000000000000000000000000000006020830152604082019050919050565b6000613f21602983614775565b91507f4552433732313a207472616e73666572206f6620746f6b656e2074686174206960008301527f73206e6f74206f776e00000000000000000000000000000000000000000000006020830152604082019050919050565b6000613f87602f83614775565b91507f4552433732314d657461646174613a2055524920717565727920666f72206e6f60008301527f6e6578697374656e7420746f6b656e00000000000000000000000000000000006020830152604082019050919050565b6000613fed602183614775565b91507f4552433732313a20617070726f76616c20746f2063757272656e74206f776e6560008301527f72000000000000000000000000000000000000000000000000000000000000006020830152604082019050919050565b6000614053602683614775565b91507f416c7265616479206c6f636b65642c2063616e206e6f74206d696e7420616e7960008301527f206d6f72652e00000000000000000000000000000000000000000000000000006020830152604082019050919050565b60006140b9603183614775565b91507f4552433732313a207472616e736665722063616c6c6572206973206e6f74206f60008301527f776e6572206e6f7220617070726f7665640000000000000000000000000000006020830152604082019050919050565b600061411f602c83614775565b91507f455243373231456e756d657261626c653a20676c6f62616c20696e646578206f60008301527f7574206f6620626f756e647300000000000000000000000000000000000000006020830152604082019050919050565b6000614185601783614786565b91507f416363657373436f6e74726f6c3a206163636f756e74200000000000000000006000830152601782019050919050565b60006141c5601183614786565b91507f206973206d697373696e6720726f6c65200000000000000000000000000000006000830152601182019050919050565b6000614205602f83614775565b91507f416363657373436f6e74726f6c3a2063616e206f6e6c792072656e6f756e636560008301527f20726f6c657320666f722073656c6600000000000000000000000000000000006020830152604082019050919050565b6142678161491a565b82525050565b6142768161491a565b82525050565b60006142888285613a0d565b91506142948284613a0d565b91508190509392505050565b60006142ab82614178565b91506142b78285613a0d565b91506142c2826141b8565b91506142ce8284613a0d565b91508190509392505050565b60006020820190506142ef6000830184613910565b92915050565b600060808201905061430a6000830187613910565b6143176020830186613910565b614324604083018561426d565b8181036060830152614336818461399b565b905095945050505050565b6000602082019050614356600083018461397d565b92915050565b6000602082019050614371600083018461398c565b92915050565b6000602082019050818103600083015261439181846139d4565b905092915050565b600060208201905081810360008301526143b281613a3e565b9050919050565b600060208201905081810360008301526143d281613a7e565b9050919050565b600060208201905081810360008301526143f281613abe565b9050919050565b6000602082019050818103600083015261441281613b24565b9050919050565b6000602082019050818103600083015261443281613b8a565b9050919050565b6000602082019050818103600083015261445281613bca565b9050919050565b6000602082019050818103600083015261447281613c30565b9050919050565b6000602082019050818103600083015261449281613c70565b9050919050565b600060208201905081810360008301526144b281613cd6565b9050919050565b600060208201905081810360008301526144d281613d3c565b9050919050565b600060208201905081810360008301526144f281613da2565b9050919050565b6000602082019050818103600083015261451281613e08565b9050919050565b6000602082019050818103600083015261453281613e48565b9050919050565b6000602082019050818103600083015261455281613eae565b9050919050565b6000602082019050818103600083015261457281613f14565b9050919050565b6000602082019050818103600083015261459281613f7a565b9050919050565b600060208201905081810360008301526145b281613fe0565b9050919050565b600060208201905081810360008301526145d281614046565b9050919050565b600060208201905081810360008301526145f2816140ac565b9050919050565b6000602082019050818103600083015261461281614112565b9050919050565b60006020820190508181036000830152614632816141f8565b9050919050565b600060208201905061464e600083018461426d565b92915050565b6000604082019050614669600083018561426d565b818103602083015261467b818461391f565b90509392505050565b6000604051905081810181811067ffffffffffffffff821117156146ab576146aa614ac9565b5b8060405250919050565b600067ffffffffffffffff8211156146d0576146cf614ac9565b5b601f19601f8301169050602081019050919050565b600067ffffffffffffffff821115614700576146ff614ac9565b5b601f19601f8301169050602081019050919050565b6000819050602082019050919050565b600081519050919050565b600081519050919050565b600081519050919050565b6000602082019050919050565b600082825260208201905092915050565b600082825260208201905092915050565b600082825260208201905092915050565b600081905092915050565b600061479c8261491a565b91506147a78361491a565b9250827fffffffffffffffffffffffffffffffffffffffffffffffffffffffffffffffff038211156147dc576147db614a3c565b5b828201905092915050565b60006147f28261491a565b91506147fd8361491a565b92508261480d5761480c614a6b565b5b828204905092915050565b60006148238261491a565b915061482e8361491a565b9250817fffffffffffffffffffffffffffffffffffffffffffffffffffffffffffffffff048311821515161561486757614866614a3c565b5b828202905092915050565b600061487d8261491a565b91506148888361491a565b92508282101561489b5761489a614a3c565b5b828203905092915050565b60006148b1826148fa565b9050919050565b60008115159050919050565b6000819050919050565b60007fffffffff0000000000000000000000000000000000000000000000000000000082169050919050565b600073ffffffffffffffffffffffffffffffffffffffff82169050919050565b6000819050919050565b82818337600083830152505050565b60005b83811015614951578082015181840152602081019050614936565b83811115614960576000848401525b50505050565b60006149718261491a565b9150600082141561498557614984614a3c565b5b600182039050919050565b600060028204905060018216806149a857607f821691505b602082108114156149bc576149bb614a9a565b5b50919050565b60006149cd8261491a565b91507fffffffffffffffffffffffffffffffffffffffffffffffffffffffffffffffff821415614a00576149ff614a3c565b5b600182019050919050565b6000614a168261491a565b9150614a218361491a565b925082614a3157614a30614a6b565b5b828206905092915050565b7f4e487b7100000000000000000000000000000000000000000000000000000000600052601160045260246000fd5b7f4e487b7100000000000000000000000000000000000000000000000000000000600052601260045260246000fd5b7f4e487b7100000000000000000000000000000000000000000000000000000000600052602260045260246000fd5b7f4e487b7100000000000000000000000000000000000000000000000000000000600052604160045260246000fd5b6000601f19601f8301169050919050565b614b12816148a6565b8114614b1d57600080fd5b50565b614b29816148b8565b8114614b3457600080fd5b50565b614b40816148c4565b8114614b4b57600080fd5b50565b614b57816148ce565b8114614b6257600080fd5b50565b614b6e8161491a565b8114614b7957600080fd5b5056fea2646970667358221220e32ad4aacdd21b0a077bf3a7dfa2f5a938f6d422572defdfd59ec82c3277cad164736f6c63430008000033",
  "immutableReferences": {},
  "source": "// SPDX-License-Identifier: MIT\nimport './lib.sol';\npragma solidity ^0.8.0;\n\ncontract ConfluxConsortiumNFT is AccessControlEnumerable, ERC721, ERC721URIStorage, CRC721Enumerable {\n\n  // ---------- state variables ----------\n  string private _baseUri;\n  bool private _locked;\n\n\n  // ---------- public interface ----------\n  constructor() ERC721('CFXConsortium NFT','CFXCS-NFT') {\n    _baseUri = 'NotSet';\n    _locked = false;\n    _setupRole(DEFAULT_ADMIN_ROLE, msg.sender);\n  }\n\n  function setBaseURI(string memory baseUri) public onlyRole(DEFAULT_ADMIN_ROLE) {\n    _baseUri = baseUri;\n  }\n\n\n  function mintBatch(address[] calldata owners, uint256[] calldata tokenIds) public onlyRole(DEFAULT_ADMIN_ROLE) {\n    require(_locked == false, 'Already locked, can not mint any more.');\n    require(owners.length == tokenIds.length, \"length mismatch\");\n\n    for (uint256 ii = 0; ii < owners.length; ++ii) {\n      _mint(owners[ii], tokenIds[ii]);\n    }\n    _locked = true;\n  }\n\n\n  // ---------- inherited interface ----------\n  function _baseURI() internal view override returns (string memory) {\n    return _baseUri;\n  }\n\n  function _burn(uint256 tokenId) internal override(ERC721, ERC721URIStorage) {\n    super._burn(tokenId);\n  }\n\n  function tokenURI(uint256 tokenId) public view override(ERC721, ERC721URIStorage) returns (string memory) {\n    return super.tokenURI(tokenId);\n  }\n\n  function _beforeTokenTransfer(address from, address to, uint256 tokenId)\n  internal\n  virtual\n  override(ERC721, ERC721Enumerable)\n  {\n    super._beforeTokenTransfer(from, to, tokenId);\n  }\n\n  function supportsInterface(bytes4 interfaceId)\n  public\n  view\n  override(ERC721, ERC721Enumerable, AccessControlEnumerable)\n  returns (bool)\n  {\n    return super.supportsInterface(interfaceId);\n  }\n}\n",
  "sourcePath": "/Users/kang/work/conflux-consortium-nft/contracts/ConfluxConsortiumNFT.sol",
  "compiler": {
    "name": "solc",
    "version": "0.8.0+commit.c7dfd78e.Emscripten.clang"
  },
  "schemaVersion": "3.4.1",
  "updatedAt": "2021-09-18T07:18:20.486Z",
  "devdoc": {
    "kind": "dev",
    "methods": {
      "approve(address,uint256)": {
        "details": "See {IERC721-approve}."
      },
      "balanceOf(address)": {
        "details": "See {IERC721-balanceOf}."
      },
      "getApproved(uint256)": {
        "details": "See {IERC721-getApproved}."
      },
      "getRoleAdmin(bytes32)": {
        "details": "Returns the admin role that controls `role`. See {grantRole} and {revokeRole}. To change a role's admin, use {_setRoleAdmin}."
      },
      "getRoleMember(bytes32,uint256)": {
        "details": "Returns one of the accounts that have `role`. `index` must be a value between 0 and {getRoleMemberCount}, non-inclusive. Role bearers are not sorted in any particular way, and their ordering may change at any point. WARNING: When using {getRoleMember} and {getRoleMemberCount}, make sure you perform all queries on the same block. See the following https://forum.openzeppelin.com/t/iterating-over-elements-on-enumerableset-in-openzeppelin-contracts/2296[forum post] for more information."
      },
      "getRoleMemberCount(bytes32)": {
        "details": "Returns the number of accounts that have `role`. Can be used together with {getRoleMember} to enumerate all bearers of a role."
      },
      "grantRole(bytes32,address)": {
        "details": "Overload {grantRole} to track enumerable memberships"
      },
      "hasRole(bytes32,address)": {
        "details": "Returns `true` if `account` has been granted `role`."
      },
      "isApprovedForAll(address,address)": {
        "details": "See {IERC721-isApprovedForAll}."
      },
      "name()": {
        "details": "See {IERC721Metadata-name}."
      },
      "ownerOf(uint256)": {
        "details": "See {IERC721-ownerOf}."
      },
      "renounceRole(bytes32,address)": {
        "details": "Overload {renounceRole} to track enumerable memberships"
      },
      "revokeRole(bytes32,address)": {
        "details": "Overload {revokeRole} to track enumerable memberships"
      },
      "safeTransferFrom(address,address,uint256)": {
        "details": "See {IERC721-safeTransferFrom}."
      },
      "safeTransferFrom(address,address,uint256,bytes)": {
        "details": "See {IERC721-safeTransferFrom}."
      },
      "setApprovalForAll(address,bool)": {
        "details": "See {IERC721-setApprovalForAll}."
      },
      "symbol()": {
        "details": "See {IERC721Metadata-symbol}."
      },
      "tokenByIndex(uint256)": {
        "details": "See {IERC721Enumerable-tokenByIndex}."
      },
      "tokenOfOwnerByIndex(address,uint256)": {
        "details": "See {IERC721Enumerable-tokenOfOwnerByIndex}."
      },
      "tokens(uint256,uint256)": {
        "details": "Returns token IDs in pagination view."
      },
      "tokensOf(address,uint256,uint256)": {
        "details": "Returns token IDs of specified `owner` in pagination view."
      },
      "totalSupply()": {
        "details": "See {IERC721Enumerable-totalSupply}."
      },
      "transferFrom(address,address,uint256)": {
        "details": "See {IERC721-transferFrom}."
      }
    },
    "version": 1
  },
  "userdoc": {
    "kind": "user",
    "methods": {},
    "version": 1
  }
}